:020000040800F2
:10000000F019002031020008F71E0008171C000834
:10001000F51E00085B060008CD2400080000000063
:10002000000000000000000000000000FB1E0008AF
:100030005D06000800000000F91E0008FD1E000813
:100040004B0200084B0200084B0200084B0200085C
:100050004B0200084B0200084B0200084B0200084C
:100060004B0200084B0200084B0200084B0200083C
:100070004B0200084B0200084B0200084B0200082C
:100080004B0200084B0200084B0200084B0200081C
:100090004B0200084B0200084B0200084B0200080C
:1000A0004B0200084B0200084B0200084B020008FC
:1000B0004B020008A51F00084B0200084B02000875
:1000C0004B0200084B0200084B0200084B020008DC
:1000D0004B020008C12400084B0200084B02000834
:1000E0004B0200084B0200084B0200084B020008BC
:1000F0004B0200084B0200084B0200084B020008AC
:100100004B0200084B0200084B0200084B0200089B
:100110004B0200084B0200084B0200084B0200088B
:100120004B0200084B0200084B0200084B0200087B
:100130004B0200084B0200084B0200084B0200086B
:100140004B0200084B0200084B0200084B0200085B
:100150004B0200084B0200084B0200084B0200084B
:100160004B0200084B0200084B0200084B0200083B
:100170004B0200084B0200084B0200080000000080
:100180004B0200084B02000800F002F800F041F8B2
:100190000AA090E8000C82448344AAF10107DA45E2
:1001A00001D100F036F8AFF2090EBAE80F0013F0F3
:1001B000010F18BFFB1A43F0010318472C2700005A
:1001C0004C270000103A24BF78C878C1FAD85207EB
:1001D00024BF30C830C144BF04680C6070470000C1
:1001E0000023002400250026103A28BF78C1FBD840
:1001F000520728BF30C148BF0B607047642900F028
:10020000F780002070471FB502F058FB1FBD10B5E6
:1002100010BD00F0E8F91146FFF7F5FF02F09AF97A
:1002200000F006FA03B4FFF7F2FF03BC00F00EFA89
:100230000948804709480047FEE7FEE7FEE7FEE77A
:10024000FEE7FEE7FEE7FEE7FEE7FEE704480549B6
:10025000054A064B70470000951F000889010008F9
:10026000F0010020F0190020F0090020F009002022
:1002700053EA020C00F069802DE9F04B4FF00006C4
:10028000002B1FBFB3FA83F503FA05F424FA05F631
:100290005E4012BF1643B2FA82F502FA05F4C5F1C8
:1002A00020051EBF22FA05FC44EA0C04203556EA5C
:1002B000044C4FEA144418BF641C4FF000084FF080
:1002C0000009904271EB030C39D3002919BFB1FA30
:1002D00081F701FA07F6B0FA80F700FA07F6C7F1DE
:1002E00020071EBF20FA07FC46EA0C062037B6FBA3
:1002F000F4FCA7EB0507103F07F01F0BCBF120061E
:100300000CFA0BFB2CFA06F644BFB3460026202F4E
:10031000A4BF5E464FF0000B5BEA060C08BF4FF02F
:10032000010B19EB0B09ABFB027C48EB0608C01B69
:1003300006FB02CC0BFB03CC71EB0C01C1E70B46B7
:10034000024641464846BDE8F08B13B54FF0000029
:100350004FF00001AFF30080BDE81C407047000083
:100360000FB41CB5074B06AA7B446946009005985C
:1003700000F021F90020694600F030F91CBC5DF85E
:1003800014FB0000710200002DE9F0410E46044606
:10039000002020622046E168884730B3252805D038
:1003A000D4E901219047206A401CF2E7E168204629
:1003B00000278847050018D0A5F14100192802D868
:1003C00020354FF400673246294620462760FFF764
:1003D00015FF40B1012804D0F61D26F007060836A7
:1003E000D8E7361DD6E72846DAE7206ABDE8F0816F
:1003F0002DE9F0410646002410687529314616A5FE
:1004000010D0AFF30080002802DA404213A507E0C5
:1004100031688A0701D512A502E0490704D511A564
:10042000012401E0AFF3008000210A2206F1240735
:1004300009E0B0FBF2FCB0FBF2F302FB1C00303031
:1004400078541846491C0028F3D123462A463046E2
:10045000BDE8F04100F051B8000000002D000000A0
:100460002B0000002000000010B5431C02E010F833
:10047000011B71B18107FAD14FF0013202C88C1A09
:100480008C4314EAC211F9D0C01A0A0603D0C01E68
:1004900010BDC01A10BD0A0401D0801E10BD090293
:1004A000FCD0401E10BD4FF0000200B5134694462C
:1004B0009646203922BFA0E80C50A0E80C50B1F1BC
:1004C0002001BFF4F7AF090728BFA0E80C5048BFD0
:1004D0000CC05DF804EB890028BF40F8042B08BF6E
:1004E000704748BF20F8022B11F0804F18BF00F86A
:1004F000012B70477047704770472DE9F0470D4654
:1005000099469246044600F124080168880604D5FD
:10051000E06921F01001216000E00120A84201DD26
:10052000471B00E00027A1697A1902EB0900081AAD
:10053000A0612078C00602D42046AFF300800026D8
:1005400008E0D4E901211AF806009047206A401C0F
:10055000761C20624E45F4DB2078C0060AD5204682
:10056000AFF3008006E0D4E9012130209047206AF3
:10057000401C2062381EA7F10107F4DC07E0D4E933
:10058000012118F805009047206A401C2062281EAF
:10059000A5F10105F3DC2046AFF3008020780006CA
:1005A00002D50220BDE8F0870120FBE701694A1C63
:1005B00002610878704700B58FB0CDE901310021A4
:1005C000059105497944CDE9031011466846FFF7C6
:1005D000DBFE0FB000BD0000E5FFFFFF0A6802F878
:1005E000010B0A607047754600F02CF8AE46050016
:1005F0006946534620F00700854618B020B5FFF73E
:1006000025FEBDE820404FF000064FF000074FF0F8
:1006100000084FF0000B21F00701AC46ACE8C00920
:10062000ACE8C009ACE8C009ACE8C0098D46704729
:1006300010B50446AFF300802046BDE81040FFF738
:10064000F1BD0000004870479001002001491820CA
:10065000ABBEFEE7260002007047FEE7704772B6A9
:10066000FEE72DE9F0410446876D00F065F9064686
:1006700094F835000025022806D08020606584F8B3
:1006800034500120BDE8F0812068016821F0160196
:1006900001602068416921F080014161206C08B946
:1006A000A06C20B12068016821F008010160206879
:1006B000016821F0010101600CE000F03DF9801BB0
:1006C000052807D920206065032084F8350084F8C8
:1006D0003450D7E720680068C007EED194F85C106A
:1006E0003F208840B860012084F8350084F83450F9
:1006F0000020C7E790F83510022903D0802141651A
:1007000001207047052180F835100068016821F04C
:10071000010101600020704770B5044600F00CF93B
:100720000546601C02D004480078044400F004F937
:10073000401BA042FAD370BD180000202DE9F84FED
:10074000DFF8BCA10022012503264FF00F090AF1B2
:10075000040BAAF1040E00BF0B6805FA02F4234053
:10076000A34270D10F7907F00307012F01D0022FA8
:1007700016D187684FEA420806FA08FC27EA0C07F8
:10078000D1F80CC00CFA08FC4CEA070CC0F808C001
:100790004768A7430C79C4F3001494403C43446079
:1007A0000C79E443A4070AD0C4684FEA420C06FA65
:1007B0000CF7BC438F6807FA0CF72743C7600C7926
:1007C00004F00304022C12D1D40800EB840CDCF8F2
:1007D00020405707FF0E09FA07F824EA0804D1F869
:1007E000108008FA07F848EA0408CCF8208004686A
:1007F0004FEA420C06FA0CF7BC430F7907F00307E7
:1008000007FA0CF7274307604C6814F4403F70D098
:100810003C4C276847F480472760246822F0030790
:1008200004F480440094384C07EB040CDCF80848CE
:1008300097074FEA177809FA08F7BC43334FB842D5
:1008400002D1002724E054E0314FB84201D1012702
:100850001EE0304FB84201D1022719E02E4FB842B6
:1008600001D1032714E02D4FB84201D104270FE036
:100870002B4FB84201D105270AE02A4FB84201D1D7
:10088000062705E0284FB84201D1072700E00827D6
:1008900007FA08F72743CCF80878DAF800405746FB
:1008A000D1F804C09C435FEACC2C00D51C433C60CB
:1008B000DBF800405F46D1F804C09C435FEA8C2C13
:1008C00000D51C433C60DEF800407746D1F804C0F8
:1008D0009C435FEA8C3C00D51C433C60084F083FBA
:1008E0003C68D1F804C09C435FEACC3C00D51C4373
:1008F0003C60521C102AFFF42FAFBDE8F88F0000B7
:10090000083C0140443802400030014000000240F1
:100910000004024000080240000C024000100240A7
:100920000014024000180240001C02400AB181611C
:1009300070470904FBE70000014880687047000029
:1009400018000020024881680278114481607047D5
:10095000180000200B4810B5016841F400710160D7
:10096000016841F480610160016841F480710160B7
:10097000032000F06FF80F2000F006F800F024F8D4
:10098000002010BD003C024070B50D4D04464FF4F0
:100990007A712878B1FBF0F00A490968B1FBF0F0F0
:1009A00000F00AFB48B9102C07D200222146501E45
:1009B00000F030F800206C6070BD012070BD0000B8
:1009C00018000020240000200A4808B5016841F4FE
:1009D00080410160006800F4804000900548001FDD
:1009E000016841F080510160006800F08050009083
:1009F00008BD000044380240002809DB00F01F0257
:100A0000012191404009800000F1E020C0F8001170
:100A100070470000F0B40E4B1B680C46C3F3022372
:100A2000C3F10705042D00D90425191D072901D29A
:100A3000002300E0DB1E012606FA05F1491E2140D5
:100A400099409E40761E16403143F0BC01F03FBDF8
:100A50000CED00E0064900F0070208684FF6FF03BE
:100A6000184040EA0220034A104308607047000023
:100A70000CED00E00000FA052DE9F0470E460500F8
:100A800065D0DFF81481D8F80000F7B200F0070055
:100A9000B04207D288F80070D8F8000000F00700D4
:100AA000B04254D128683D4C810712D5400703D588
:100AB000206840F4E05020602878000703D52068C3
:100AC00040F4604020602068A96820F0F0000843EE
:100AD00020602878C0072DD030496868083901287F
:100AE00012D0022813D0032811D0096889070029E1
:100AF0002DDA216821F0030101432160FFF71CFF7B
:100B0000814641F2883A0EE009688903EFE70968F7
:100B10008901ECE7FFF710FFA0EB0901514502D96D
:100B20000320BDE8F0872068696800F00C00B0EB96
:100B3000810FEFD1D8F80010404601F00701B14213
:100B400007D90770006800F00700B04201D001200B
:100B5000E7E72878400705D52068E96820F4E050E9
:100B6000084320602878000706D52068296920F40A
:100B7000604040EAC100206000F038F82168084A6F
:100B8000C1F30311515CC84006490860064800687B
:100B9000FFF7FAFE0020C4E7003C0240083802409C
:100BA000D0280008240000201C000020044805492B
:100BB00000680968044AC1F38221515CC84070474B
:100BC0002400002008380240E028000804480549B5
:100BD00000680968044AC1F34231515CC84070475B
:100BE0002400002008380240E0280008154810B50D
:100BF000006810F00C02144813D04110042A0FD0E2
:100C0000082A0ED10F4C241F2268236802F03F02ED
:100C10005B0207D52068C0F38810A0FB010106E045
:100C2000084610BD2168C1F38811A1FB0001002313
:100C3000FFF71EFB2168C1F30141491C4900B0FBCD
:100C4000F1F010BD083802400024F4002DE9F84FFF
:100C500004006ED02078DFF84C93C007A9F104059A
:100C60004AD009F104000168C1F38101012908D0CB
:100C70000068C0F3810002280AD1D9F800004002C0
:100C800006D52868800337D560680028E1D033E0B6
:100C90006068B0F5803F10D0B0F5A02F286810D064
:100CA00020F480302860286820F480202860606864
:100CB000A8B1FFF741FE06460DE0286840F48030F9
:100CC000F4E740F480202860F7E700BFFFF734FE28
:100CD000801B642873D828688003F7D50CE0FFF7E1
:100CE0002BFE064605E000BFFFF726FE801B6428AA
:100CF000F0D828688003F7D42078DFF8AC8280072A
:100D00004FF0000A3ED5A748001D016811F00C0FF6
:100D100008D00068C0F3810002280BD1D9F8000088
:100D2000400207D42868800716D5E068012800D162
:100D300012E033E1E068B8B10120C8F80000FFF725
:100D4000FBFD064605E000BFFFF7F6FD801B02280D
:100D5000C0D828688007F7D52868216920F0F800F6
:100D600040EAC10028600DE0C8F800A0FFF7E4FDEC
:100D7000064604E0FFF7E0FD801B02281FD8286824
:100D80008007F7D42078000722D5864F874861690D
:100D9000703771B101210160FFF7CEFD064604E016
:100DA000FFF7CAFD801B022809D838688007F7D5ED
:100DB0000EE0C0F800A0FFF7BFFD064605E082E0A8
:100DC000FFF7BAFD801B02287DD838688007F7D46A
:100DD0002078400768D5DFF8CCB100270BF13C0B39
:100DE000DBF80000C0000BD4DBF8001041F08051AC
:100DF000CBF80010DBF80000012700F080500090D5
:100E00006B4E3068C00510D4306840F4807030609C
:100E1000FFF792FD009005E0FFF78EFD0099401A64
:100E2000022850D83068C005F6D55E4EA0686C36F2
:100E300001280FD00528306810D020F00100306064
:100E4000306820F004003060A068B8B1FFF774FD8E
:100E500000900FE0306840F00100F4E740F004003B
:100E60003060F7E7FFF768FD0099411A41F28830DA
:100E7000814266D830688007F4D50EE0FFF75CFD4C
:100E8000009007E0FFF758FD0099411A41F28830C1
:100E9000814256D830688007F4D42FB1DBF80010B7
:100EA00021F08051CBF80010A069C8B33D49091D5D
:100EB0000968C1F3810102294AD00228504607D0AF
:100EC000C8F8600000E03CE0FFF736FD04463BE078
:100ED0004746C8F86000FFF72FFD064605E000BF53
:100EE000FFF72AFD801B02282BD828688001F7D441
:100EF000D4E907010843A16A2E4A490802EB0141DF
:100F0000626A41EA8211084394F82C1040EA0161B8
:100F1000C9F8001001203866FFF70EFD044606E010
:100F20003EE000BFFFF708FD001B022809D8286833
:100F30008001F7D534E000BFFFF7FEFC001B02285C
:100F400002D90320BDE8F88F28688001F4D427E097
:100F50000128F7D0D9F80000E26900F4800191423D
:100F60001CD1226A00F03F01914217D147F6C071AF
:100F7000626A0140B1EB821F10D1A26A4FF0FF33C9
:100F800000F4403103EB5202B1EB024F06D194F86A
:100F90002C1000F07060B0EB016F01D00120D1E7A0
:100FA0000020CFE70438024000004742800E47424D
:100FB000007000400000FFFF10B5401EB0F1807FC0
:100FC00001D3012010BD4FF0E02460610F216017B4
:100FD00001F07DFA0020A06107202061002010BDF3
:100FE0007047704770B590F83C20012A32D0012438
:100FF00080F83C40022280F83D2003685A689D68D2
:1010000022F070060A6832435A60134B02689A4213
:1010100014D0B2F1804F11D0104B9A420ED0104B29
:101020009A420BD00F4B9A4208D00F4B9A4205D0F0
:101030000E4B9A4202D00E4B9A4204D1496825F0D9
:1010400080031943916080F83D40002180F83C10F6
:10105000084670BD022070BD000001400004004041
:1010600000080040000C0040000401400040014026
:101070000018004010B5040003D094F83D0010B1F2
:1010800007E0012010BD002084F83C00204600F05D
:101090001FF8022084F83D00211D206800F088FF21
:1010A000012084F8460084F83E0084F83F0084F86C
:1010B000400084F8410084F8420084F8430084F83A
:1010C000440084F8450084F83D00002010BD000075
:1010D00008B501681048B1F1804F14D00F4A914211
:1010E00019D1016841F0020101600068002200F09E
:1010F0000200009011461D20FFF78CFCBDE808405F
:101100001D20FFF779BC016841F001010160006812
:1011100000F00100009008BD40380240000400408B
:1011200090F83D10012901D001207047022180F87C
:101130003D100168CA6842F00102CA6000681149A6
:10114000884214D0B0F1804F11D00F4988420ED0A0
:101150000E4988420BD00E49884208D00D4988427A
:1011600005D00D49884202D00C49884204D18168DB
:1011700001F00701062903D0016841F00101016077
:1011800000207047000001400004004000080040BB
:10119000000C0040000401400040014000180040E5
:1011A00070B5044690F83C000025012817D00126B0
:1011B00084F83C60022084F83D002068826822F0B8
:1011C000770222F47F4282600868502838D00DDC14
:1011D00020284FD005DC90B3102811D14AE002201E
:1011E00070BD302846D040280AD13BE060282FD07F
:1011F00070280DD0B0F5805F03D0B0F5005F12D03D
:10120000012584F83D60002084F83C00284670BD2C
:10121000CB68D1E90121206800F043FF2068816894
:1012200041F0770109E0CB68D1E90121206800F0A5
:1012300038FF2068816841F480418160E1E719E06E
:10124000CA684968206801F001F85021206806E06A
:10125000CA684968206801F00AF86021206800F037
:101260002AFFCEE7CA684968206800F0EFFF4021F6
:101270002068F4E7226801461046F0E72DE9F041C6
:101280000D46040003D094F83D0018B108E0012099
:10129000BDE8F081002084F83C00204600F040F8D2
:1012A000022084F83D002068816844F207029143DF
:1012B0008160211D206800F07BFE226890689169A2
:1012C000166A2B68AF69034340F20330814341EA59
:1012D0000721A868EF6908434FF6FC418843E96895
:1012E00040EA0720014328692F6A000140EA0730DD
:1012F000084369686D6926F0AA0646EA0515294380
:1013000093602268906154F8460B0162012004F852
:101310001F09E0752076E0762077A0750020B7E7FA
:1013200030B587B0044614216846FFF7BCF8214861
:1013300024681F4D00221F4910380223AC4217D1E8
:101340000C6844F004040C60096801F00401059184
:10135000016841F0080101600068694600F008007A
:1013600005904FF440500090CDE90132124818E04A
:10137000124DAC4219D10C6844F008040C600968A5
:1013800001F008010591016841F001010160006868
:10139000694600F00100059003200090CDE901327C
:1013A0000748CDE90323FFF7C9F907B030BD0000B6
:1013B0000008004040380240000C0240000C004091
:1013C0000000024070B590F83E60044690F83F502F
:1013D00090F8423090F84320022021B104290ED029
:1013E000012E1BD114E0012E18D1012B16D184F847
:1013F0003E0084F8420001220021206820E0012DF7
:101400000CD1012A0AD184F83F0084F8430014E08B
:10141000012D03D1012B01D1012A01D0012070BD82
:1014200084F83E0084F83F0084F8420084F84300CA
:1014300001220021206800F027FE012204212068FB
:1014400000F022FE2068016841F0010101600020E7
:1014500070BD70472DE9F04104460068C668056913
:101460004FF00007A90713D5B10711D5F91E016187
:1014700001202077206880698007204602D0FFF78E
:10148000E8FF04E000F0D0F8204600F062F927778A
:10149000680716D5700714D521686FF0040008613D
:1014A000022020772068806910F4407F204602D017
:1014B000FFF7CFFF04E000F0B7F8204600F049F94D
:1014C0002777280715D5300713D521686FF0080056
:1014D0000861042020772068C0698007204602D078
:1014E000FFF7B7FF04E000F09FF8204600F031F965
:1014F0002777E80616D5F00614D521686FF010009E
:101500000861082020772068C06910F4407F2046D9
:1015100002D0FFF79EFF04E000F086F8204600F0BE
:1015200018F92777E80708D0F00706D021686FF090
:1015300001000861204600F071F9280608D5300640
:1015400006D521686FF0800008612046FFF748FD4E
:10155000680608D5700606D521686FF0400008615E
:10156000204600F091F9A8060AD5B00608D52168F2
:101570006FF0200008612046BDE8F041FFF731BD63
:10158000BDE8F08170B586B0044614216846FEF7C8
:101590008AFF22680024204902252048B2F1804FAA
:1015A00016D01F4B9A4211D10A6842F001020A601C
:1015B000096801F00101059140210091CDE9015434
:1015C0006946CDE9034500BFFFF7B8F806B070BD26
:1015D0000A6842F001020A600A6802F001020592FC
:1015E0000A6842F002020A600968012601F002015D
:1015F000059120210091CDE90154CDE903466946CA
:10160000FFF79CF808200090CDE90154CDE903468E
:1016100069460448D8E70000303802400000024024
:101620000004004000040240704770B5044690F882
:101630003C0000260D4601280FD0012084F83C0014
:101640006AB1042A1DD0082A2FD00C2A3FD00126C7
:10165000002084F83C00304670BD022070BD206838
:1016600000F032FD2068816941F008018161206845
:10167000816921F004018161206881692A6911432F
:1016800011E0206800F050FD2068816941F400619C
:1016900081612068816921F48061816120688169AC
:1016A0002A6941EA02218161D2E7206800F072FDD7
:1016B0002068C16941F00801C1612068C16921F059
:1016C0000401C1612068C1692A69114311E02068E1
:1016D00000F094FD2068C16941F40061C161206897
:1016E000C16921F48061C1612068C1692A6941EA48
:1016F0000221C161ACE710B5040003D094F83D00AD
:1017000010B107E0012010BD002084F83C00204605
:1017100000F01EF8022084F83D00211D206800F032
:1017200047FC012084F8460084F83E0084F83F001E
:1017300084F8400084F8410084F8420084F84300B3
:1017400084F8440084F8450084F83D00002010BD72
:101750007047704710B50446022249B104290ED0E3
:10176000082913D094F84100012816D0012010BD9B
:1017700094F83E000128F9D184F83E200FE094F857
:101780003F000128F2D184F83F2008E094F840009F
:101790000128EBD184F8402001E084F841200122A7
:1017A000206800F071FC16492068164A884201D072
:1017B000904203D1436C43F4004343642068884261
:1017C00013D0B0F1804F10D00F4988420DD00F498F
:1017D00088420AD00E49884207D0904205D00D4970
:1017E000884202D00C49884204D1816801F0070187
:1017F000062903D0016841F001010160002010BDFD
:1018000000000140000401400004004000080040C6
:10181000000C00400040014000180040164988427A
:1018200028D116480068416A15484160416802683D
:10183000891A0161426803684FF6FF719A4204DA1F
:1018400042680368D21A0A440261426802600D4A83
:101850001268526AC260C2688368D21A4261C26862
:1018600083689A4204DAC2688368D21A11444161DB
:10187000C16881607047000070000020B80000203F
:1018800000000020000100207047704770470000F2
:10189000F8B5016804460868CA684B6910F00F0F74
:1018A0004FF0000559D003F0010602F4907737435A
:1018B00065D0C10705D0D10503D5616C41F00101A8
:1018C0006164410705D5D90703D0616C41F002017D
:1018D0006164810705D5D90703D0616C41F004012B
:1018E0006164010707D502F02001314303D0616C28
:1018F00041F008016164616C00293AD0800604D58A
:10190000900602D5204600F0F3FC20684069616C27
:10191000C0F38010090700D460B3204600F0C1FC7A
:1019200020684069400621D52068143050E8001F27
:1019300021F0400140E80012002AF5D1E06BA8B187
:101940006E490165E06BFEF7D5FE002811D0E06B13
:10195000016D01B0BDE8F040084783060FD593063E
:101960000DD52046BDE8F84000F0C2BC2046FFF788
:101970008DFFF8BD2046FFF789FF6564F8BD266B33
:101980002023012E7DD1C6067BD5D60679D50868E1
:101990004868009048694FF00206400641D5E16B67
:1019A000086840680004000CE8D0A28D8242E5D9A6
:1019B000E085C869B0F5807F2DD020680C3050E8F4
:1019C000001F21F4807140E80012002AF5D1206840
:1019D000143050E8001F21F0010140E80012002AF5
:1019E000F5D12068143050E8001F21F0400140E894
:1019F0000012002AF5D184F84230256320680C30AB
:101A000050E8001F21F0100140E80012002AF5D133
:101A1000E06BFEF726FE6663A08DE18D401A81B271
:101A20002AE0A08DE18D401A81B2E08D0028A5D07A
:101A30000029A3D022680C3252E8000F20F49070E5
:101A400042E80007002FF5D12068143050E8002F3D
:101A500022F0010240E80027002FF5D184F842303F
:101A6000256320680C3050E8002F22F0100240E877
:101A70000023002BF5D166632046FFF706FFF8BD73
:101A8000FFE705062BD5150629D594F84100212836
:101A9000F5D1A068B0F5805F01D12069B0B1206AAE
:101AA000411C2162216800784860E08C401E0004DF
:101AB000000CE084E3D12068C16821F08001C1609E
:101AC0002068C16841F04001C160D8E7206A008801
:101AD000C0F308004860206A801C2062E5E74006E9
:101AE000CDD55006CBD5CA68204622F04002CA6048
:101AF00084F8413000F08EF8C1E70000932200081E
:101B000070B5040004D094F84100002510B106E03F
:101B1000012070BD84F84050204600F023F82420B6
:101B200084F841002068C16821F40051C16020465A
:101B300000F040FC2068016921F4904101612068B7
:101B4000416921F02A0141612068C16841F40051D6
:101B5000C1606564202084F8410084F84200656318
:101B6000002070BD10B586B0044614216846FEF70B
:101B70009AFC18492068884229D117480021026838
:101B800042F010020260006800F010000590124858
:101B90001438026842F001020260006800F001009F
:101BA00005904FF4C06000900220CDE901010320B0
:101BB00003900720049069460848FEF7BFFD002205
:101BC00011462520FEF726FF2520FEF715FF06B05B
:101BD00010BD0000001001404438024000000240E7
:101BE000704790F84130202B01D00220704779B126
:101BF00072B101628284C28400214164212180F893
:101C000041100068C16841F08001C1600020704748
:101C1000012070477047FEE770B586B01421684612
:101C2000FEF741FC1E480024016841F0800101607C
:101C3000016801F080010591016841F00101016036
:101C4000016801F001010591016841F0080101609E
:101C5000016801F008010591016841F0040101608B
:101C6000016801F004010591016841F00201016081
:101C700000680C4E00F002004FF4707505900022D1
:101C800029463046FEF752FE01200095CDE90104B9
:101C9000694630460394FEF751FD06B070BD000062
:101CA000303802400008024010B58EB0002407947E
:101CB000089409940A940B941C2168460C94FEF72E
:101CC000F2FB22484FF0804101605321C0E901142A
:101CD0004FF47A71C0E903148461FFF7CBF908B1BE
:101CE000FEF7BDFC4FF48050079007A91748FFF797
:101CF00057FA08B1FEF7B3FC1448FFF7FCFC08B133
:101D0000FEF7ADFC0B940BA910480C94FFF76AF991
:101D100008B1FEF7A4FC6020CDE900040294002283
:101D200069460A480494FFF780FC08B1FEF797FC67
:101D3000042269460548FFF778FC08B1FEF78FFCDE
:101D40000248FFF71FFC0EB010BD00002800002065
:101D500010B58EB000240794089409940A940B944B
:101D60001C2168460C94FEF79EFB1F481D4901602C
:101D700040F24731C0E9011440F2CF71C0E90314C9
:101D80008461FFF777F908B1FEF769FC4FF48050E2
:101D9000079007A91448FFF703FA08B1FEF75FFCA4
:101DA0001148FFF7A8FC08B1FEF759FC0B940BA9EA
:101DB0000D480C94FFF716F908B1FEF750FC6020AF
:101DC000CDE9000402940022694607480494FFF715
:101DD0002CFC08B1FEF743FC0348FFF7D3FB0EB021
:101DE00010BD0000000400407000002010B58CB051
:101DF00024216846FEF757FB00241548099413492F
:101E00000A9401600121C0E901144FF6FF72C0E994
:101E100003248461CDE90014CDE902140494CDE9D2
:101E20000541079469460894FFF728FA08B1FEF7C0
:101E300016FC099409A906480A94FFF7D3F800286C
:101E400001D0FEF70CFC0CB010BD000000080040F3
:101E5000B800002010B58CB024216846FEF723FBA3
:101E600000241548099413490A9401600121C0E92E
:101E700001148A1EC0E903248461CDE900140F20F7
:101E80000291CDE90340CDE90541CDE9074069461E
:101E90000948FFF7F3F908B1FEF7E1FB099409A936
:101EA00005480A94FFF79EF8002801D0FEF7D7FBFB
:101EB0000CB010BD000C0040000100200C4810B513
:101EC0000A4901604FF4E1314160002181600C2238
:101ED000C160C0E904128161C161FFF711FE0028F1
:101EE00003D0BDE81040FEF7BABB10BD00100140A2
:101EF00048010020FEE7FEE770477047FEF722BD6D
:101F000030B593B030216846FEF7CDFA14210CA805
:101F1000FEF7C9FA1D480025016841F080510160B3
:101F2000006800F0805011901948016841F4804128
:101F300001600068022400F48040119001200090AC
:101F4000000401908001CDE9064008AA0420A821E0
:101F500082E813000B906846FEF778FE08B172B66F
:101F6000FEE70CA90F2081E831004FF4A0500F903C
:101F70004FF48050109005210CA8FEF77DFD00283D
:101F800001D072B6FEE713B030BD00004038024009
:101F9000007000400248016841F470010160704720
:101FA00088ED00E00148FFF755BA000070000020FE
:101FB000F0B50268294C2A4D2A4E2B4F2B4B4FF07F
:101FC000804CA04209D0604507D0A84205D0B0425D
:101FD00003D0B84201D0984204D122F0700E4A6872
:101FE00042EA0E02A0421BD0604519D0A84217D089
:101FF000B04215D0B84213D0984211D01C4DA8421F
:102000000ED01C4DA8420BD01B4DA84208D01B4D32
:10201000A84205D01A4DA84202D01A4DA84203D1B9
:1020200022F44075CA682A434D6922F080022A438F
:1020300002608A68C2620A688262A04201D0984245
:1020400001D109690163012141610169C90703D017
:10205000016921F001010161F0BD000000000140B3
:102060000004004000080040000C00400004014053
:102070000040014000440140004801400018004079
:10208000001C00400020004010B501F01F0301219A
:10209000046A99408C430462016A9A4011430162C8
:1020A00010BD10B5846842EA032224F47F440A4339
:1020B0002243826010BD826822F070020A4342F01F
:1020C0000701816070470000F0B5036A026A22F0E0
:1020D0000102026242688469124E24F073050C68A2
:1020E0002C4323F002058B682B430D4DA84201D0F1
:1020F000B04205D123F00807CB683B4323F004032B
:10210000A84201D0B04205D14D6922F44072154376
:102110008A692A4342608461496841630362F0BD71
:102120000000014000040140F0B5026A036A23F098
:1021300010030362436884690D6824F4E64444EAAA
:1021400005248D6822F0200242EA05120F4D104E40
:10215000A84201D0B04206D1CF6822F0800242EA04
:10216000071222F04002A84201D0B04207D14D69C7
:1021700023F4406343EA85038D6943EA85034360A2
:102180008461496881630262F0BD00000000014083
:1021900000040140F0B5026A036A23F4807303620D
:1021A0004368C46922F4007224F073050C68124E6F
:1021B0002C438D6842EA05220E4DA84201D0B04260
:1021C00006D1CF6822F4006242EA072222F480623C
:1021D000A84201D0B04207D14D6923F4405343EAED
:1021E00005138D6943EA05134360C4614968C163FF
:1021F0000262F0BD000001400004014030B5046AF5
:10220000026A22F4805202624268C3690D6823F4B4
:10221000E64343EA05238D6824F4005444EA053478
:10222000084DA84202D0084DA84204D14D6922F4BD
:10223000804242EA85124260C361496801640462D7
:1022400030BD0000000001400004014010B5036AE9
:10225000046A24F001040462846924F0F00444EA6E
:10226000021423F00A020A438461026210BD10B511
:10227000036A046A24F010040462846923F0A00352
:1022800024F4704444EA023243EA0111826101629B
:1022900010BD10B5806B0021C185C184FFF7F6FA2F
:1022A00010BD01680C3151E8002F22F4907241E812
:1022B0000023002BF5D10168143151E8002F22F0E2
:1022C000010241E80023002BF5D1016B012909D15E
:1022D00001680C3151E8002F22F0100241E8002380
:1022E000002BF5D1202180F84210002101637047B6
:1022F00008B590F84210222901D0022008BD82685A
:102300004FF480539A4201D1016921B1816A9A4206
:102310001BD04AB10AE00268816A5268C2F308021F
:102320000A80816A891C08E0026972B102685268F9
:1023300002F07F020A70816A491C8162C18D491EC8
:102340000904090CC18503D01BE002685268F1E75B
:102350000168CA6822F02002CA600168CA6822F4D3
:102360008072CA6001684A6922F001024A61202134
:1023700080F8421000214163026B012A03D0FFF76D
:102380002FFC002008BD016301680C3151E8002FCB
:1023900022F0100241E80023002BF5D101680A6801
:1023A000D20602D50A6849680091818DFFF76DFA5F
:1023B000E7E7000070B5044600680169E26821F4AF
:1023C0004051114301612169A068E26908436169D4
:1023D000114308432168CA6849F20C639A430243D7
:1023E000CA6020684169A26921F4407111434161CA
:1023F00031492068884202D03049884202D1FEF734
:10240000E5FB01E0FEF7D2FBE26900231921642518
:102410003226B2F5004F626828D0A0FB0101930F6D
:102420009200FDF725FF0146B0FBF5F06FF01802B2
:10243000504301EB800006EB0010B0FBF5F000F01C
:10244000F002B1FBF5F002EB0012B1FBF5F06FF01A
:102450001803584301EB800006EB0010B0FBF5F0C9
:1024600000F00F0021681044886070BDA0FB0101DE
:1024700092185B41FDF7FCFE0146B0FBF5F002014E
:10248000B1FBF5F06FF01803584301EB800006EB49
:10249000C000B0FBF5F000F0F80002EB4002B1FB29
:1024A000F5F0584301EB800006EBC000B0FBF5F0FF
:1024B00000F00700D6E700000010014000140140C2
:1024C0000148FFF7E5B9000048010020FEE70907D1
:1024D000090E002804DB00F1E02080F800147047AA
:1024E00000F00F0000F1E02080F8141D704700009C
:1024F00070B5164E0D460446012240213046FEF7C7
:1025000015FA002280213046FEF710FA012211024E
:102510003046FEF70BFA002271153046FEF706FA38
:102520004FF47A71002C01DA002402E08C4200DDC5
:102530000C46074802685463002D01DA002502E0CA
:102540008D4200DD0D460068856370BD00080240C5
:102550002800002086B0FEF7FDF9FFF7D1FCFFF759
:102560005BFBFFF7A1FBFFF7A9FCFFF7F1FBFFF710
:102570003DFCFFF76FFC00211B48FFF7EBF804213F
:102580001948FFF7E7F800211848FFF7E3F8174864
:10259000FEF7C6FD3C211648FEF714FF3C21154806
:1025A000FEF710FF124C144D4FF4FA7630463146C8
:1025B000FFF79EFF286900F029F8BDEEC00A2068E9
:1025C00010EE102A406A0DA16846FDF7C9FE684664
:1025D000FDF74AFF82B269460B48FFF702FB632012
:1025E000FEF79AF8E2E700002800002070000020C3
:1025F000B80000200001002000000020636F756E0D
:102600007465723A25640A004801002010B500F094
:1026100040F89FED051B53EC112B00F051F800F032
:1026200007F800EE100A10BD333333333333304034
:1026300021F00042A2F16052B2F5801F01F0004388
:1026400028BFD2F17F6C0BD95FEA001C43EAC202BB
:1026500042EB507018BF704728BF20F00100704750
:10266000B2F5801FBCBF184670474FEA410C1CF5FD
:10267000001F02D2084600F026B970B500F0CAF873
:1026800000000089FFF7F6BF4FF00040A0F5800082
:10269000704710F0004248BF4042B0FA80F310FA91
:1026A00003F10AD0C3F11D0303F580634FEA4150E3
:1026B00002EB035202EBD12170474FF0000070474C
:1026C000DFF848C170B51CEA111E1EBF1CEA1315C5
:1026D0009EEA0C0F95EA0C0F00F06F8081EA03046C
:1026E00023EA4C134EEAD47E21EA4C1141F48011C6
:1026F00043F48013AE44A1FB024CA0FB0365AEF192
:102700007F7E361955EB0C05A1FB034C4CF1000301
:10271000A0FB021C16EB0C06654153F100030942B5
:1027200018BF46F0010613F4007F0BD14FEA0331C6
:102730004FEA0530340341EA155140EA16506FF074
:1027400003020AE04FEAC3214FEAC520F40241EA3E
:10275000555140EA56506FF0020202EB2E4201EB57
:10276000025585EACE710AD05FEA440C18BF24F006
:10277000004450F1000041F1000120EAD47040F221
:10278000FE7C624500D270BDA84214BF4FF0804469
:102790004FF04044002E08BF0024BEF1806FA8BF58
:1027A000A1F1C041BDE8704080F282804FF000008E
:1027B00001F1C04101F0004170479EEA0C0F0CEAA4
:1027C000131518BF95EA0C0F06D04FF0000081EAF0
:1027D000030E0EF0004170BD00F01CF88900013EB0
:1027E00000F007B800F009B84FEA430C5FEA5C5C00
:1027F00008D081EA030100F05BB84FEA410C5FEAC0
:102800005C5CF6D14FF00000014970470000FF0703
:102810000000F87F0EF1020E2EF0030E5EF8046B3E
:10282000364205D4012A43EB030515F5001F12D8E3
:10283000012841EB010C1CF5001F0CD80ED14FEA0A
:10284000D17C15F5001F0CEB4C0C0CF1020C08BFF1
:102850004CEBD37C04E04FF0080C01E04FEAD37C52
:102860000CEB4C0526FA05F606F00706B6F1040C4B
:1028700006D20EEB860CBDE870404CF0010C6047B0
:10288000DFE80CF0090B02024FF000414FF00000AE
:10289000A1F5002170BD19461046012851EB010435
:1028A00018BFD4F5001484BF002001F0004170BDB2
:1028B0000808A0F500114FEA310170474FF0407051
:1028C000E1EE100A7047FF2141EAD050C005704781
:1028D00000000000000000000102030406070809D0
:1028E0000000000001020304082900080000002085
:1028F00028000000C401000830290008280000203A
:10290000C8190000E00100080000000000000000FD
:1029100000000000000000000000000000000000B7
:102920000100000010000000000000000024F4007E
:040000050800018965
:00000001FF
